:100000000C9434000C943E000C943E000C943E0082
:100010000C943E000C943E000C943E000C943E0068
:100020000C943E000C943E000C943E000C943E0058
:100030000C943E000C943E000C943E000C943E0048
:100040000C943E000C943E000C943E000C943E0038
:100050000C943E000C943E000C943E000C943E0028
:100060000C943E000C943E0011241FBECFEFD8E04C
:10007000DEBFCDBF0E9440000C9455000C940000E0
:100080000E94500048E020E931E08BB184278BB911
:1000900088E893E1F9013197F1F70197D9F7F5CFA6
:0E00A0004C6055B14AB94BB90895F894FFCFA2
:00000001FF
